{
  "_format": "hh-sol-artifact-1",
  "contractName": "FundMe",
  "sourceName": "contracts/FundMe.sol",
  "abi": [
    {
      "inputs": [
        {
          "internalType": "address",
          "name": "_priceFeed",
          "type": "address"
        }
      ],
      "stateMutability": "nonpayable",
      "type": "constructor"
    },
    {
      "inputs": [],
      "name": "FundMe_NotOwner",
      "type": "error"
    },
    {
      "stateMutability": "payable",
      "type": "fallback"
    },
    {
      "inputs": [],
      "name": "MINIMUM_USD",
      "outputs": [
        {
          "internalType": "uint256",
          "name": "",
          "type": "uint256"
        }
      ],
      "stateMutability": "view",
      "type": "function"
    },
    {
      "inputs": [
        {
          "internalType": "address",
          "name": "",
          "type": "address"
        }
      ],
      "name": "addressToAmountFunded",
      "outputs": [
        {
          "internalType": "uint256",
          "name": "",
          "type": "uint256"
        }
      ],
      "stateMutability": "view",
      "type": "function"
    },
    {
      "inputs": [],
      "name": "fundMe",
      "outputs": [],
      "stateMutability": "payable",
      "type": "function"
    },
    {
      "inputs": [
        {
          "internalType": "uint256",
          "name": "",
          "type": "uint256"
        }
      ],
      "name": "funders",
      "outputs": [
        {
          "internalType": "address",
          "name": "",
          "type": "address"
        }
      ],
      "stateMutability": "view",
      "type": "function"
    },
    {
      "inputs": [],
      "name": "getVersion",
      "outputs": [
        {
          "internalType": "uint256",
          "name": "",
          "type": "uint256"
        }
      ],
      "stateMutability": "view",
      "type": "function"
    },
    {
      "inputs": [],
      "name": "i_owner",
      "outputs": [
        {
          "internalType": "address",
          "name": "",
          "type": "address"
        }
      ],
      "stateMutability": "view",
      "type": "function"
    },
    {
      "inputs": [],
      "name": "priceFeed",
      "outputs": [
        {
          "internalType": "contract AggregatorV3Interface",
          "name": "",
          "type": "address"
        }
      ],
      "stateMutability": "view",
      "type": "function"
    },
    {
      "inputs": [],
      "name": "withdraw",
      "outputs": [],
      "stateMutability": "payable",
      "type": "function"
    },
    {
      "stateMutability": "payable",
      "type": "receive"
    }
  ],
  "bytecode": "0x60a06040523480156200001157600080fd5b50604051620010f0380380620010f083398181016040528101906200003791906200011f565b3373ffffffffffffffffffffffffffffffffffffffff1660808173ffffffffffffffffffffffffffffffffffffffff1660601b81525050806000806101000a81548173ffffffffffffffffffffffffffffffffffffffff021916908373ffffffffffffffffffffffffffffffffffffffff1602179055505062000151565b600080fd5b600073ffffffffffffffffffffffffffffffffffffffff82169050919050565b6000620000e782620000ba565b9050919050565b620000f981620000da565b81146200010557600080fd5b50565b6000815190506200011981620000ee565b92915050565b600060208284031215620001385762000137620000b5565b5b6000620001488482850162000108565b91505092915050565b60805160601c610f7962000177600039600081816103b3015261063d0152610f796000f3fe60806040526004361061007f5760003560e01c8063741bef1a1161004e578063741bef1a14610135578063b6a324e014610160578063dba6335f1461016a578063dc0d3dff146101955761008e565b80630d8e6e2c146100985780633ccfd60b146100c35780633e47d6f3146100cd5780636b69a5921461010a5761008e565b3661008e5761008c6101d2565b005b6100966101d2565b005b3480156100a457600080fd5b506100ad61030b565b6040516100ba919061083a565b60405180910390f35b6100cb6103b1565b005b3480156100d957600080fd5b506100f460048036038101906100ef91906108b8565b6105f2565b604051610101919061083a565b60405180910390f35b34801561011657600080fd5b5061011f61060a565b60405161012c919061083a565b60405180910390f35b34801561014157600080fd5b5061014a610617565b6040516101579190610944565b60405180910390f35b6101686101d2565b005b34801561017657600080fd5b5061017f61063b565b60405161018c919061096e565b60405180910390f35b3480156101a157600080fd5b506101bc60048036038101906101b791906109b5565b61065f565b6040516101c9919061096e565b60405180910390f35b6802b5e3af16b188000061020f60008054906101000a900473ffffffffffffffffffffffffffffffffffffffff163461069e90919063ffffffff16565b1015610250576040517f08c379a000000000000000000000000000000000000000000000000000000000815260040161024790610a3f565b60405180910390fd5b34600160003373ffffffffffffffffffffffffffffffffffffffff1673ffffffffffffffffffffffffffffffffffffffff168152602001908152602001600020600082825461029f9190610a8e565b925050819055506002339080600181540180825580915050600190039060005260206000200160009091909190916101000a81548173ffffffffffffffffffffffffffffffffffffffff021916908373ffffffffffffffffffffffffffffffffffffffff160217905550565b60008060009054906101000a900473ffffffffffffffffffffffffffffffffffffffff1673ffffffffffffffffffffffffffffffffffffffff166354fd4d506040518163ffffffff1660e01b815260040160206040518083038186803b15801561037457600080fd5b505afa158015610388573d6000803e3d6000fd5b505050506040513d601f19601f820116820180604052508101906103ac9190610af9565b905090565b7f000000000000000000000000000000000000000000000000000000000000000073ffffffffffffffffffffffffffffffffffffffff163373ffffffffffffffffffffffffffffffffffffffff1614610436576040517f10e0797900000000000000000000000000000000000000000000000000000000815260040160405180910390fd5b60005b6002805490508110156104e25760006002828154811061045c5761045b610b26565b5b9060005260206000200160009054906101000a900473ffffffffffffffffffffffffffffffffffffffff1690506000600160008373ffffffffffffffffffffffffffffffffffffffff1673ffffffffffffffffffffffffffffffffffffffff168152602001908152602001600020819055505080806104da90610b55565b915050610439565b50600067ffffffffffffffff8111156104fe576104fd610b9e565b5b60405190808252806020026020018201604052801561052c5781602001602082028036833780820191505090505b506002908051906020019061054292919061077a565b5060003373ffffffffffffffffffffffffffffffffffffffff164760405161056990610bfe565b60006040518083038185875af1925050503d80600081146105a6576040519150601f19603f3d011682016040523d82523d6000602084013e6105ab565b606091505b50509050806105ef576040517f08c379a00000000000000000000000000000000000000000000000000000000081526004016105e690610c5f565b60405180910390fd5b50565b60016020528060005260406000206000915090505481565b6802b5e3af16b188000081565b60008054906101000a900473ffffffffffffffffffffffffffffffffffffffff1681565b7f000000000000000000000000000000000000000000000000000000000000000081565b6002818154811061066f57600080fd5b906000526020600020016000915054906101000a900473ffffffffffffffffffffffffffffffffffffffff1681565b6000806106aa836106da565b90506000670de0b6b3a764000085836106c39190610c7f565b6106cd9190610d08565b9050809250505092915050565b6000808273ffffffffffffffffffffffffffffffffffffffff1663feaf968c6040518163ffffffff1660e01b815260040160a06040518083038186803b15801561072357600080fd5b505afa158015610737573d6000803e3d6000fd5b505050506040513d601f19601f8201168201806040525081019061075b9190610db1565b5050509150506402540be400816107729190610e2c565b915050919050565b8280548282559060005260206000209081019282156107f3579160200282015b828111156107f25782518260006101000a81548173ffffffffffffffffffffffffffffffffffffffff021916908373ffffffffffffffffffffffffffffffffffffffff1602179055509160200191906001019061079a565b5b5090506108009190610804565b5090565b5b8082111561081d576000816000905550600101610805565b5090565b6000819050919050565b61083481610821565b82525050565b600060208201905061084f600083018461082b565b92915050565b600080fd5b600073ffffffffffffffffffffffffffffffffffffffff82169050919050565b60006108858261085a565b9050919050565b6108958161087a565b81146108a057600080fd5b50565b6000813590506108b28161088c565b92915050565b6000602082840312156108ce576108cd610855565b5b60006108dc848285016108a3565b91505092915050565b6000819050919050565b600061090a6109056109008461085a565b6108e5565b61085a565b9050919050565b600061091c826108ef565b9050919050565b600061092e82610911565b9050919050565b61093e81610923565b82525050565b60006020820190506109596000830184610935565b92915050565b6109688161087a565b82525050565b6000602082019050610983600083018461095f565b92915050565b61099281610821565b811461099d57600080fd5b50565b6000813590506109af81610989565b92915050565b6000602082840312156109cb576109ca610855565b5b60006109d9848285016109a0565b91505092915050565b600082825260208201905092915050565b7f596f75206e65656420746f207370656e64206d6f726520455448210000000000600082015250565b6000610a29601b836109e2565b9150610a34826109f3565b602082019050919050565b60006020820190508181036000830152610a5881610a1c565b9050919050565b7f4e487b7100000000000000000000000000000000000000000000000000000000600052601160045260246000fd5b6000610a9982610821565b9150610aa483610821565b9250827fffffffffffffffffffffffffffffffffffffffffffffffffffffffffffffffff03821115610ad957610ad8610a5f565b5b828201905092915050565b600081519050610af381610989565b92915050565b600060208284031215610b0f57610b0e610855565b5b6000610b1d84828501610ae4565b91505092915050565b7f4e487b7100000000000000000000000000000000000000000000000000000000600052603260045260246000fd5b6000610b6082610821565b91507fffffffffffffffffffffffffffffffffffffffffffffffffffffffffffffffff821415610b9357610b92610a5f565b5b600182019050919050565b7f4e487b7100000000000000000000000000000000000000000000000000000000600052604160045260246000fd5b600081905092915050565b50565b6000610be8600083610bcd565b9150610bf382610bd8565b600082019050919050565b6000610c0982610bdb565b9150819050919050565b7f43616c6c206661696c6564000000000000000000000000000000000000000000600082015250565b6000610c49600b836109e2565b9150610c5482610c13565b602082019050919050565b60006020820190508181036000830152610c7881610c3c565b9050919050565b6000610c8a82610821565b9150610c9583610821565b9250817fffffffffffffffffffffffffffffffffffffffffffffffffffffffffffffffff0483118215151615610cce57610ccd610a5f565b5b828202905092915050565b7f4e487b7100000000000000000000000000000000000000000000000000000000600052601260045260246000fd5b6000610d1382610821565b9150610d1e83610821565b925082610d2e57610d2d610cd9565b5b828204905092915050565b600069ffffffffffffffffffff82169050919050565b610d5881610d39565b8114610d6357600080fd5b50565b600081519050610d7581610d4f565b92915050565b6000819050919050565b610d8e81610d7b565b8114610d9957600080fd5b50565b600081519050610dab81610d85565b92915050565b600080600080600060a08688031215610dcd57610dcc610855565b5b6000610ddb88828901610d66565b9550506020610dec88828901610d9c565b9450506040610dfd88828901610ae4565b9350506060610e0e88828901610ae4565b9250506080610e1f88828901610d66565b9150509295509295909350565b6000610e3782610d7b565b9150610e4283610d7b565b9250827f7fffffffffffffffffffffffffffffffffffffffffffffffffffffffffffffff0482116000841360008413161615610e8157610e80610a5f565b5b817f80000000000000000000000000000000000000000000000000000000000000000583126000841260008413161615610ebe57610ebd610a5f565b5b827f80000000000000000000000000000000000000000000000000000000000000000582126000841360008412161615610efb57610efa610a5f565b5b827f7fffffffffffffffffffffffffffffffffffffffffffffffffffffffffffffff0582126000841260008412161615610f3857610f37610a5f565b5b82820290509291505056fea264697066735822122031d2d6925e65aa37741d142fc781ac70bdecdd091a7fab260baa318fe94af9f164736f6c63430008080033",
  "linkReferences": {},
  "deployedLinkReferences": {}
}